{
  "_format": "hh-sol-artifact-1",
  "contractName": "CrowdFunding",
  "sourceName": "contracts/CrowdFunding.sol",
  "abi": [
    {
      "inputs": [
        {
          "internalType": "uint256",
          "name": "",
          "type": "uint256"
        }
      ],
      "name": "campaigns",
      "outputs": [
        {
          "internalType": "address",
          "name": "owner",
          "type": "address"
        },
        {
          "internalType": "string",
          "name": "title",
          "type": "string"
        },
        {
          "internalType": "string",
          "name": "description",
          "type": "string"
        },
        {
          "internalType": "uint256",
          "name": "target",
          "type": "uint256"
        },
        {
          "internalType": "uint256",
          "name": "deadline",
          "type": "uint256"
        },
        {
          "internalType": "uint256",
          "name": "amountCollected",
          "type": "uint256"
        }
      ],
      "stateMutability": "view",
      "type": "function"
    },
    {
      "inputs": [
        {
          "internalType": "address",
          "name": "_owner",
          "type": "address"
        },
        {
          "internalType": "string",
          "name": "_title",
          "type": "string"
        },
        {
          "internalType": "string",
          "name": "_description",
          "type": "string"
        },
        {
          "internalType": "uint256",
          "name": "_target",
          "type": "uint256"
        },
        {
          "internalType": "uint256",
          "name": "_deadline",
          "type": "uint256"
        }
      ],
      "name": "createCampaign",
      "outputs": [
        {
          "internalType": "uint256",
          "name": "",
          "type": "uint256"
        }
      ],
      "stateMutability": "nonpayable",
      "type": "function"
    },
    {
      "inputs": [
        {
          "internalType": "uint256",
          "name": "_id",
          "type": "uint256"
        }
      ],
      "name": "donateToCampaign",
      "outputs": [],
      "stateMutability": "payable",
      "type": "function"
    },
    {
      "inputs": [],
      "name": "getCampaigns",
      "outputs": [
        {
          "components": [
            {
              "internalType": "address",
              "name": "owner",
              "type": "address"
            },
            {
              "internalType": "string",
              "name": "title",
              "type": "string"
            },
            {
              "internalType": "string",
              "name": "description",
              "type": "string"
            },
            {
              "internalType": "uint256",
              "name": "target",
              "type": "uint256"
            },
            {
              "internalType": "uint256",
              "name": "deadline",
              "type": "uint256"
            },
            {
              "internalType": "uint256",
              "name": "amountCollected",
              "type": "uint256"
            },
            {
              "internalType": "address[]",
              "name": "donators",
              "type": "address[]"
            },
            {
              "internalType": "uint256[]",
              "name": "donations",
              "type": "uint256[]"
            }
          ],
          "internalType": "struct CrowdFunding.Campaign[]",
          "name": "",
          "type": "tuple[]"
        }
      ],
      "stateMutability": "view",
      "type": "function"
    },
    {
      "inputs": [],
      "name": "numberOfCampaigns",
      "outputs": [
        {
          "internalType": "uint256",
          "name": "",
          "type": "uint256"
        }
      ],
      "stateMutability": "view",
      "type": "function"
    }
  ],
  "bytecode": "0x6080604052600060015534801561001557600080fd5b506114fd806100256000396000f3fe60806040526004361061004a5760003560e01c8063075843c31461004f57806307ca140d1461008c578063141961bc146100b757806342a4fda8146100f9578063a6b0363314610115575b600080fd5b34801561005b57600080fd5b5061007660048036038101906100719190610ab3565b610140565b6040516100839190610b75565b60405180910390f35b34801561009857600080fd5b506100a1610254565b6040516100ae9190610b75565b60405180910390f35b3480156100c357600080fd5b506100de60048036038101906100d99190610b90565b61025a565b6040516100f096959493929190610c4b565b60405180910390f35b610113600480360381019061010e9190610b90565b6103c6565b005b34801561012157600080fd5b5061012a610526565b6040516101379190611007565b60405180910390f35b600080600080600154815260200190815260200160002090504281600401541061019f576040517f08c379a000000000000000000000000000000000000000000000000000000000815260040161019690611075565b60405180910390fd5b868160000160006101000a81548173ffffffffffffffffffffffffffffffffffffffff021916908373ffffffffffffffffffffffffffffffffffffffff160217905550858160010190816101f391906112a1565b508481600201908161020591906112a1565b508381600301819055508281600401819055506000816005018190555060016000815480929190610235906113a2565b91905055506001805461024891906113ea565b91505095945050505050565b60015481565b60006020528060005260406000206000915090508060000160009054906101000a900473ffffffffffffffffffffffffffffffffffffffff16908060010180546102a3906110c4565b80601f01602080910402602001604051908101604052809291908181526020018280546102cf906110c4565b801561031c5780601f106102f15761010080835404028352916020019161031c565b820191906000526020600020905b8154815290600101906020018083116102ff57829003601f168201915b505050505090806002018054610331906110c4565b80601f016020809104026020016040519081016040528092919081815260200182805461035d906110c4565b80156103aa5780601f1061037f576101008083540402835291602001916103aa565b820191906000526020600020905b81548152906001019060200180831161038d57829003601f168201915b5050505050908060030154908060040154908060050154905086565b60003490506000806000848152602001908152602001600020905080600601339080600181540180825580915050600190039060005260206000200160009091909190916101000a81548173ffffffffffffffffffffffffffffffffffffffff021916908373ffffffffffffffffffffffffffffffffffffffff1602179055508060070182908060018154018082558091505060019003906000526020600020016000909190919091505560008160000160009054906101000a900473ffffffffffffffffffffffffffffffffffffffff1673ffffffffffffffffffffffffffffffffffffffff16836040516104bb9061144f565b60006040518083038185875af1925050503d80600081146104f8576040519150601f19603f3d011682016040523d82523d6000602084013e6104fd565b606091505b505090508015610520578282600501546105179190611464565b82600501819055505b50505050565b6060600060015467ffffffffffffffff81111561054657610545610952565b5b60405190808252806020026020018201604052801561057f57816020015b61056c61086a565b8152602001906001900390816105645790505b50905060005b600154811015610862576000806000838152602001908152602001600020905080604051806101000160405290816000820160009054906101000a900473ffffffffffffffffffffffffffffffffffffffff1673ffffffffffffffffffffffffffffffffffffffff1673ffffffffffffffffffffffffffffffffffffffff168152602001600182018054610618906110c4565b80601f0160208091040260200160405190810160405280929190818152602001828054610644906110c4565b80156106915780601f1061066657610100808354040283529160200191610691565b820191906000526020600020905b81548152906001019060200180831161067457829003601f168201915b505050505081526020016002820180546106aa906110c4565b80601f01602080910402602001604051908101604052809291908181526020018280546106d6906110c4565b80156107235780601f106106f857610100808354040283529160200191610723565b820191906000526020600020905b81548152906001019060200180831161070657829003601f168201915b50505050508152602001600382015481526020016004820154815260200160058201548152602001600682018054806020026020016040519081016040528092919081815260200182805480156107cf57602002820191906000526020600020905b8160009054906101000a900473ffffffffffffffffffffffffffffffffffffffff1673ffffffffffffffffffffffffffffffffffffffff1681526020019060010190808311610785575b505050505081526020016007820180548060200260200160405190810160405280929190818152602001828054801561082757602002820191906000526020600020905b815481526020019060010190808311610813575b50505050508152505083838151811061084357610842611498565b5b602002602001018190525050808061085a906113a2565b915050610585565b508091505090565b604051806101000160405280600073ffffffffffffffffffffffffffffffffffffffff168152602001606081526020016060815260200160008152602001600081526020016000815260200160608152602001606081525090565b6000604051905090565b600080fd5b600080fd5b600073ffffffffffffffffffffffffffffffffffffffff82169050919050565b6000610904826108d9565b9050919050565b610914816108f9565b811461091f57600080fd5b50565b6000813590506109318161090b565b92915050565b600080fd5b600080fd5b6000601f19601f8301169050919050565b7f4e487b7100000000000000000000000000000000000000000000000000000000600052604160045260246000fd5b61098a82610941565b810181811067ffffffffffffffff821117156109a9576109a8610952565b5b80604052505050565b60006109bc6108c5565b90506109c88282610981565b919050565b600067ffffffffffffffff8211156109e8576109e7610952565b5b6109f182610941565b9050602081019050919050565b82818337600083830152505050565b6000610a20610a1b846109cd565b6109b2565b905082815260208101848484011115610a3c57610a3b61093c565b5b610a478482856109fe565b509392505050565b600082601f830112610a6457610a63610937565b5b8135610a74848260208601610a0d565b91505092915050565b6000819050919050565b610a9081610a7d565b8114610a9b57600080fd5b50565b600081359050610aad81610a87565b92915050565b600080600080600060a08688031215610acf57610ace6108cf565b5b6000610add88828901610922565b955050602086013567ffffffffffffffff811115610afe57610afd6108d4565b5b610b0a88828901610a4f565b945050604086013567ffffffffffffffff811115610b2b57610b2a6108d4565b5b610b3788828901610a4f565b9350506060610b4888828901610a9e565b9250506080610b5988828901610a9e565b9150509295509295909350565b610b6f81610a7d565b82525050565b6000602082019050610b8a6000830184610b66565b92915050565b600060208284031215610ba657610ba56108cf565b5b6000610bb484828501610a9e565b91505092915050565b610bc6816108f9565b82525050565b600081519050919050565b600082825260208201905092915050565b60005b83811015610c06578082015181840152602081019050610beb565b60008484015250505050565b6000610c1d82610bcc565b610c278185610bd7565b9350610c37818560208601610be8565b610c4081610941565b840191505092915050565b600060c082019050610c606000830189610bbd565b8181036020830152610c728188610c12565b90508181036040830152610c868187610c12565b9050610c956060830186610b66565b610ca26080830185610b66565b610caf60a0830184610b66565b979650505050505050565b600081519050919050565b600082825260208201905092915050565b6000819050602082019050919050565b610cef816108f9565b82525050565b600082825260208201905092915050565b6000610d1182610bcc565b610d1b8185610cf5565b9350610d2b818560208601610be8565b610d3481610941565b840191505092915050565b610d4881610a7d565b82525050565b600081519050919050565b600082825260208201905092915050565b6000819050602082019050919050565b6000610d868383610ce6565b60208301905092915050565b6000602082019050919050565b6000610daa82610d4e565b610db48185610d59565b9350610dbf83610d6a565b8060005b83811015610df0578151610dd78882610d7a565b9750610de283610d92565b925050600181019050610dc3565b5085935050505092915050565b600081519050919050565b600082825260208201905092915050565b6000819050602082019050919050565b6000610e358383610d3f565b60208301905092915050565b6000602082019050919050565b6000610e5982610dfd565b610e638185610e08565b9350610e6e83610e19565b8060005b83811015610e9f578151610e868882610e29565b9750610e9183610e41565b925050600181019050610e72565b5085935050505092915050565b600061010083016000830151610ec56000860182610ce6565b5060208301518482036020860152610edd8282610d06565b91505060408301518482036040860152610ef78282610d06565b9150506060830151610f0c6060860182610d3f565b506080830151610f1f6080860182610d3f565b5060a0830151610f3260a0860182610d3f565b5060c083015184820360c0860152610f4a8282610d9f565b91505060e083015184820360e0860152610f648282610e4e565b9150508091505092915050565b6000610f7d8383610eac565b905092915050565b6000602082019050919050565b6000610f9d82610cba565b610fa78185610cc5565b935083602082028501610fb985610cd6565b8060005b85811015610ff55784840389528151610fd68582610f71565b9450610fe183610f85565b925060208a01995050600181019050610fbd565b50829750879550505050505092915050565b600060208201905081810360008301526110218184610f92565b905092915050565b7f7468652074646561646c696e65612e736461732e646173000000000000000000600082015250565b600061105f601783610bd7565b915061106a82611029565b602082019050919050565b6000602082019050818103600083015261108e81611052565b9050919050565b7f4e487b7100000000000000000000000000000000000000000000000000000000600052602260045260246000fd5b600060028204905060018216806110dc57607f821691505b6020821081036110ef576110ee611095565b5b50919050565b60008190508160005260206000209050919050565b60006020601f8301049050919050565b600082821b905092915050565b6000600883026111577fffffffffffffffffffffffffffffffffffffffffffffffffffffffffffffffff8261111a565b611161868361111a565b95508019841693508086168417925050509392505050565b6000819050919050565b600061119e61119961119484610a7d565b611179565b610a7d565b9050919050565b6000819050919050565b6111b883611183565b6111cc6111c4826111a5565b848454611127565b825550505050565b600090565b6111e16111d4565b6111ec8184846111af565b505050565b5b81811015611210576112056000826111d9565b6001810190506111f2565b5050565b601f82111561125557611226816110f5565b61122f8461110a565b8101602085101561123e578190505b61125261124a8561110a565b8301826111f1565b50505b505050565b600082821c905092915050565b60006112786000198460080261125a565b1980831691505092915050565b60006112918383611267565b9150826002028217905092915050565b6112aa82610bcc565b67ffffffffffffffff8111156112c3576112c2610952565b5b6112cd82546110c4565b6112d8828285611214565b600060209050601f83116001811461130b57600084156112f9578287015190505b6113038582611285565b86555061136b565b601f198416611319866110f5565b60005b828110156113415784890151825560018201915060208501945060208101905061131c565b8683101561135e578489015161135a601f891682611267565b8355505b6001600288020188555050505b505050505050565b7f4e487b7100000000000000000000000000000000000000000000000000000000600052601160045260246000fd5b60006113ad82610a7d565b91507fffffffffffffffffffffffffffffffffffffffffffffffffffffffffffffffff82036113df576113de611373565b5b600182019050919050565b60006113f582610a7d565b915061140083610a7d565b925082820390508181111561141857611417611373565b5b92915050565b600081905092915050565b50565b600061143960008361141e565b915061144482611429565b600082019050919050565b600061145a8261142c565b9150819050919050565b600061146f82610a7d565b915061147a83610a7d565b925082820190508082111561149257611491611373565b5b92915050565b7f4e487b7100000000000000000000000000000000000000000000000000000000600052603260045260246000fdfea26469706673582212209b4a95d257e33e46f0d851e6ff567ea19331ce4fbf035f31f5707d9a867bf30664736f6c63430008130033",
  "linkReferences": {},
  "deployedLinkReferences": {}
}